{
  "_format": "hh-sol-artifact-1",
  "contractName": "ProposalHandler",
  "sourceName": "contracts/ProposalHandler.sol",
  "abi": [
    {
      "inputs": [],
      "stateMutability": "nonpayable",
      "type": "constructor"
    },
    {
      "inputs": [],
      "name": "Proposal__Failed_Transfer",
      "type": "error"
    },
    {
      "inputs": [
        {
          "internalType": "string",
          "name": "name",
          "type": "string"
        },
        {
          "internalType": "string",
          "name": "description",
          "type": "string"
        },
        {
          "internalType": "string",
          "name": "uri",
          "type": "string"
        },
        {
          "internalType": "uint256",
          "name": "goal",
          "type": "uint256"
        }
      ],
      "name": "createProposal",
      "outputs": [],
      "stateMutability": "nonpayable",
      "type": "function"
    },
    {
      "inputs": [
        {
          "internalType": "uint256",
          "name": "proposalId",
          "type": "uint256"
        }
      ],
      "name": "donate",
      "outputs": [],
      "stateMutability": "payable",
      "type": "function"
    },
    {
      "inputs": [
        {
          "internalType": "uint256",
          "name": "proposalId",
          "type": "uint256"
        }
      ],
      "name": "getProposal",
      "outputs": [
        {
          "components": [
            {
              "internalType": "string",
              "name": "name",
              "type": "string"
            },
            {
              "internalType": "address",
              "name": "owner",
              "type": "address"
            },
            {
              "internalType": "string",
              "name": "description",
              "type": "string"
            },
            {
              "internalType": "string",
              "name": "uri",
              "type": "string"
            },
            {
              "internalType": "uint256",
              "name": "goal",
              "type": "uint256"
            },
            {
              "internalType": "uint256",
              "name": "blocktime",
              "type": "uint256"
            },
            {
              "internalType": "enum ProposalHandler.ProposalStatus",
              "name": "status",
              "type": "uint8"
            }
          ],
          "internalType": "struct ProposalHandler.Proposal",
          "name": "",
          "type": "tuple"
        }
      ],
      "stateMutability": "view",
      "type": "function"
    },
    {
      "inputs": [],
      "name": "submitVote",
      "outputs": [],
      "stateMutability": "nonpayable",
      "type": "function"
    },
    {
      "inputs": [
        {
          "internalType": "uint256",
          "name": "proposalId",
          "type": "uint256"
        }
      ],
      "name": "withdrawFunds",
      "outputs": [],
      "stateMutability": "nonpayable",
      "type": "function"
    }
  ],
  "bytecode": "0x60806040526000805534801561001457600080fd5b50611c11806100246000396000f3fe60806040526004361061004a5760003560e01c8063155dd5ee1461004f5780631f976c29146100785780634c15676b1461008f578063c7f758a8146100b8578063f14faf6f146100f5575b600080fd5b34801561005b57600080fd5b50610076600480360381019061007191906112e3565b610111565b005b34801561008457600080fd5b5061008d610a88565b005b34801561009b57600080fd5b506100b660048036038101906100b19190611456565b610a8a565b005b3480156100c457600080fd5b506100df60048036038101906100da91906112e3565b610bea565b6040516100ec9190611701565b60405180910390f35b61010f600480360381019061010a91906112e3565b610e72565b005b806000600160008381526020019081526020016000206040518060e001604052908160008201805461014290611752565b80601f016020809104026020016040519081016040528092919081815260200182805461016e90611752565b80156101bb5780601f10610190576101008083540402835291602001916101bb565b820191906000526020600020905b81548152906001019060200180831161019e57829003601f168201915b505050505081526020016001820160009054906101000a900473ffffffffffffffffffffffffffffffffffffffff1673ffffffffffffffffffffffffffffffffffffffff1673ffffffffffffffffffffffffffffffffffffffff16815260200160028201805461022a90611752565b80601f016020809104026020016040519081016040528092919081815260200182805461025690611752565b80156102a35780601f10610278576101008083540402835291602001916102a3565b820191906000526020600020905b81548152906001019060200180831161028657829003601f168201915b505050505081526020016003820180546102bc90611752565b80601f01602080910402602001604051908101604052809291908181526020018280546102e890611752565b80156103355780601f1061030a57610100808354040283529160200191610335565b820191906000526020600020905b81548152906001019060200180831161031857829003601f168201915b5050505050815260200160048201548152602001600582015481526020016006820160009054906101000a900460ff166002811115610377576103766115e0565b5b6002811115610389576103886115e0565b5b815250509050600160028111156103a3576103a26115e0565b5b8160c0015160028111156103ba576103b96115e0565b5b146103fa576040517f08c379a00000000000000000000000000000000000000000000000000000000081526004016103f1906117e0565b60405180910390fd5b826000600160008381526020019081526020016000206040518060e001604052908160008201805461042b90611752565b80601f016020809104026020016040519081016040528092919081815260200182805461045790611752565b80156104a45780601f10610479576101008083540402835291602001916104a4565b820191906000526020600020905b81548152906001019060200180831161048757829003601f168201915b505050505081526020016001820160009054906101000a900473ffffffffffffffffffffffffffffffffffffffff1673ffffffffffffffffffffffffffffffffffffffff1673ffffffffffffffffffffffffffffffffffffffff16815260200160028201805461051390611752565b80601f016020809104026020016040519081016040528092919081815260200182805461053f90611752565b801561058c5780601f106105615761010080835404028352916020019161058c565b820191906000526020600020905b81548152906001019060200180831161056f57829003601f168201915b505050505081526020016003820180546105a590611752565b80601f01602080910402602001604051908101604052809291908181526020018280546105d190611752565b801561061e5780601f106105f35761010080835404028352916020019161061e565b820191906000526020600020905b81548152906001019060200180831161060157829003601f168201915b5050505050815260200160048201548152602001600582015481526020016006820160009054906101000a900460ff1660028111156106605761065f6115e0565b5b6002811115610672576106716115e0565b5b8152505090503373ffffffffffffffffffffffffffffffffffffffff16816020015173ffffffffffffffffffffffffffffffffffffffff16146106ea576040517f08c379a00000000000000000000000000000000000000000000000000000000081526004016106e1906117e0565b60405180910390fd5b6000600160008781526020019081526020016000206040518060e001604052908160008201805461071a90611752565b80601f016020809104026020016040519081016040528092919081815260200182805461074690611752565b80156107935780601f1061076857610100808354040283529160200191610793565b820191906000526020600020905b81548152906001019060200180831161077657829003601f168201915b505050505081526020016001820160009054906101000a900473ffffffffffffffffffffffffffffffffffffffff1673ffffffffffffffffffffffffffffffffffffffff1673ffffffffffffffffffffffffffffffffffffffff16815260200160028201805461080290611752565b80601f016020809104026020016040519081016040528092919081815260200182805461082e90611752565b801561087b5780601f106108505761010080835404028352916020019161087b565b820191906000526020600020905b81548152906001019060200180831161085e57829003601f168201915b5050505050815260200160038201805461089490611752565b80601f01602080910402602001604051908101604052809291908181526020018280546108c090611752565b801561090d5780601f106108e25761010080835404028352916020019161090d565b820191906000526020600020905b8154815290600101906020018083116108f057829003601f168201915b5050505050815260200160048201548152602001600582015481526020016006820160009054906101000a900460ff16600281111561094f5761094e6115e0565b5b6002811115610961576109606115e0565b5b8152505090506000600360008881526020019081526020016000205490506000600360008981526020019081526020016000208190555060026001600089815260200190815260200160002060060160006101000a81548160ff021916908360028111156109d2576109d16115e0565b5b02179055506000826020015173ffffffffffffffffffffffffffffffffffffffff1682604051610a0190611831565b60006040518083038185875af1925050503d8060008114610a3e576040519150601f19603f3d011682016040523d82523d6000602084013e610a43565b606091505b5050905080610a7e576040517ffadd50ec00000000000000000000000000000000000000000000000000000000815260040160405180910390fd5b5050505050505050565b565b60006040518060e001604052808681526020013373ffffffffffffffffffffffffffffffffffffffff16815260200185815260200184815260200183815260200142815260200160006002811115610ae557610ae46115e0565b5b81525090508060016000806000815480929190610b0190611875565b9190505581526020019081526020016000206000820151816000019081610b289190611a69565b5060208201518160010160006101000a81548173ffffffffffffffffffffffffffffffffffffffff021916908373ffffffffffffffffffffffffffffffffffffffff1602179055506040820151816002019081610b859190611a69565b506060820151816003019081610b9b9190611a69565b506080820151816004015560a0820151816005015560c08201518160060160006101000a81548160ff02191690836002811115610bdb57610bda6115e0565b5b02179055509050505050505050565b610bf2611234565b600160008381526020019081526020016000206040518060e0016040529081600082018054610c2090611752565b80601f0160208091040260200160405190810160405280929190818152602001828054610c4c90611752565b8015610c995780601f10610c6e57610100808354040283529160200191610c99565b820191906000526020600020905b815481529060010190602001808311610c7c57829003601f168201915b505050505081526020016001820160009054906101000a900473ffffffffffffffffffffffffffffffffffffffff1673ffffffffffffffffffffffffffffffffffffffff1673ffffffffffffffffffffffffffffffffffffffff168152602001600282018054610d0890611752565b80601f0160208091040260200160405190810160405280929190818152602001828054610d3490611752565b8015610d815780601f10610d5657610100808354040283529160200191610d81565b820191906000526020600020905b815481529060010190602001808311610d6457829003601f168201915b50505050508152602001600382018054610d9a90611752565b80601f0160208091040260200160405190810160405280929190818152602001828054610dc690611752565b8015610e135780601f10610de857610100808354040283529160200191610e13565b820191906000526020600020905b815481529060010190602001808311610df657829003601f168201915b5050505050815260200160048201548152602001600582015481526020016006820160009054906101000a900460ff166002811115610e5557610e546115e0565b5b6002811115610e6757610e666115e0565b5b815250509050919050565b806000600160008381526020019081526020016000206040518060e0016040529081600082018054610ea390611752565b80601f0160208091040260200160405190810160405280929190818152602001828054610ecf90611752565b8015610f1c5780601f10610ef157610100808354040283529160200191610f1c565b820191906000526020600020905b815481529060010190602001808311610eff57829003601f168201915b505050505081526020016001820160009054906101000a900473ffffffffffffffffffffffffffffffffffffffff1673ffffffffffffffffffffffffffffffffffffffff1673ffffffffffffffffffffffffffffffffffffffff168152602001600282018054610f8b90611752565b80601f0160208091040260200160405190810160405280929190818152602001828054610fb790611752565b80156110045780601f10610fd957610100808354040283529160200191611004565b820191906000526020600020905b815481529060010190602001808311610fe757829003601f168201915b5050505050815260200160038201805461101d90611752565b80601f016020809104026020016040519081016040528092919081815260200182805461104990611752565b80156110965780601f1061106b57610100808354040283529160200191611096565b820191906000526020600020905b81548152906001019060200180831161107957829003601f168201915b5050505050815260200160048201548152602001600582015481526020016006820160009054906101000a900460ff1660028111156110d8576110d76115e0565b5b60028111156110ea576110e96115e0565b5b81525050905060016002811115611104576111036115e0565b5b8160c00151600281111561111b5761111a6115e0565b5b1461115b576040517f08c379a0000000000000000000000000000000000000000000000000000000008152600401611152906117e0565b60405180910390fd5b6000341161119e576040517f08c379a000000000000000000000000000000000000000000000000000000000815260040161119590611b87565b60405180910390fd5b346002600085815260200190815260200160002060003373ffffffffffffffffffffffffffffffffffffffff1673ffffffffffffffffffffffffffffffffffffffff16815260200190815260200160002060008282546111fe9190611ba7565b92505081905550346003600085815260200190815260200160002060008282546112289190611ba7565b92505081905550505050565b6040518060e0016040528060608152602001600073ffffffffffffffffffffffffffffffffffffffff1681526020016060815260200160608152602001600081526020016000815260200160006002811115611293576112926115e0565b5b81525090565b6000604051905090565b600080fd5b600080fd5b6000819050919050565b6112c0816112ad565b81146112cb57600080fd5b50565b6000813590506112dd816112b7565b92915050565b6000602082840312156112f9576112f86112a3565b5b6000611307848285016112ce565b91505092915050565b600080fd5b600080fd5b6000601f19601f8301169050919050565b7f4e487b7100000000000000000000000000000000000000000000000000000000600052604160045260246000fd5b6113638261131a565b810181811067ffffffffffffffff821117156113825761138161132b565b5b80604052505050565b6000611395611299565b90506113a1828261135a565b919050565b600067ffffffffffffffff8211156113c1576113c061132b565b5b6113ca8261131a565b9050602081019050919050565b82818337600083830152505050565b60006113f96113f4846113a6565b61138b565b90508281526020810184848401111561141557611414611315565b5b6114208482856113d7565b509392505050565b600082601f83011261143d5761143c611310565b5b813561144d8482602086016113e6565b91505092915050565b600080600080608085870312156114705761146f6112a3565b5b600085013567ffffffffffffffff81111561148e5761148d6112a8565b5b61149a87828801611428565b945050602085013567ffffffffffffffff8111156114bb576114ba6112a8565b5b6114c787828801611428565b935050604085013567ffffffffffffffff8111156114e8576114e76112a8565b5b6114f487828801611428565b9250506060611505878288016112ce565b91505092959194509250565b600081519050919050565b600082825260208201905092915050565b60005b8381101561154b578082015181840152602081019050611530565b60008484015250505050565b600061156282611511565b61156c818561151c565b935061157c81856020860161152d565b6115858161131a565b840191505092915050565b600073ffffffffffffffffffffffffffffffffffffffff82169050919050565b60006115bb82611590565b9050919050565b6115cb816115b0565b82525050565b6115da816112ad565b82525050565b7f4e487b7100000000000000000000000000000000000000000000000000000000600052602160045260246000fd5b600381106116205761161f6115e0565b5b50565b60008190506116318261160f565b919050565b600061164182611623565b9050919050565b61165181611636565b82525050565b600060e08301600083015184820360008601526116748282611557565b915050602083015161168960208601826115c2565b50604083015184820360408601526116a18282611557565b915050606083015184820360608601526116bb8282611557565b91505060808301516116d060808601826115d1565b5060a08301516116e360a08601826115d1565b5060c08301516116f660c0860182611648565b508091505092915050565b6000602082019050818103600083015261171b8184611657565b905092915050565b7f4e487b7100000000000000000000000000000000000000000000000000000000600052602260045260246000fd5b6000600282049050600182168061176a57607f821691505b60208210810361177d5761177c611723565b5b50919050565b600082825260208201905092915050565b7f50726f706f73616c204e6f742072756e6e696e67000000000000000000000000600082015250565b60006117ca601483611783565b91506117d582611794565b602082019050919050565b600060208201905081810360008301526117f9816117bd565b9050919050565b600081905092915050565b50565b600061181b600083611800565b91506118268261180b565b600082019050919050565b600061183c8261180e565b9150819050919050565b7f4e487b7100000000000000000000000000000000000000000000000000000000600052601160045260246000fd5b6000611880826112ad565b91507fffffffffffffffffffffffffffffffffffffffffffffffffffffffffffffffff82036118b2576118b1611846565b5b600182019050919050565b60008190508160005260206000209050919050565b60006020601f8301049050919050565b600082821b905092915050565b60006008830261191f7fffffffffffffffffffffffffffffffffffffffffffffffffffffffffffffffff826118e2565b61192986836118e2565b95508019841693508086168417925050509392505050565b6000819050919050565b600061196661196161195c846112ad565b611941565b6112ad565b9050919050565b6000819050919050565b6119808361194b565b61199461198c8261196d565b8484546118ef565b825550505050565b600090565b6119a961199c565b6119b4818484611977565b505050565b5b818110156119d8576119cd6000826119a1565b6001810190506119ba565b5050565b601f821115611a1d576119ee816118bd565b6119f7846118d2565b81016020851015611a06578190505b611a1a611a12856118d2565b8301826119b9565b50505b505050565b600082821c905092915050565b6000611a4060001984600802611a22565b1980831691505092915050565b6000611a598383611a2f565b9150826002028217905092915050565b611a7282611511565b67ffffffffffffffff811115611a8b57611a8a61132b565b5b611a958254611752565b611aa08282856119dc565b600060209050601f831160018114611ad35760008415611ac1578287015190505b611acb8582611a4d565b865550611b33565b601f198416611ae1866118bd565b60005b82811015611b0957848901518255600182019150602085019450602081019050611ae4565b86831015611b265784890151611b22601f891682611a2f565b8355505b6001600288020188555050505b505050505050565b7f43616e277420646f6e617465207a65726f000000000000000000000000000000600082015250565b6000611b71601183611783565b9150611b7c82611b3b565b602082019050919050565b60006020820190508181036000830152611ba081611b64565b9050919050565b6000611bb2826112ad565b9150611bbd836112ad565b9250828201905080821115611bd557611bd4611846565b5b9291505056fea26469706673582212205d6a971f345930905586cb2ced8ac05aa81f32392aae15b58ee22602e6cef00e64736f6c63430008120033",
  "linkReferences": {},
  "deployedLinkReferences": {}
}