{
  "_format": "hh-sol-artifact-1",
  "contractName": "ZKTreeVote",
  "sourceName": "contracts/ZKTreeVote.sol",
  "abi": [
    {
      "inputs": [
        {
          "internalType": "uint32",
          "name": "_levels",
          "type": "uint32"
        },
        {
          "internalType": "contract IHasher",
          "name": "_hasher",
          "type": "address"
        },
        {
          "internalType": "contract IVerifier",
          "name": "_verifier",
          "type": "address"
        },
        {
          "internalType": "uint256",
          "name": "_numOptions",
          "type": "uint256"
        }
      ],
      "stateMutability": "nonpayable",
      "type": "constructor"
    },
    {
      "anonymous": false,
      "inputs": [
        {
          "indexed": true,
          "internalType": "bytes32",
          "name": "commitment",
          "type": "bytes32"
        },
        {
          "indexed": false,
          "internalType": "uint32",
          "name": "leafIndex",
          "type": "uint32"
        },
        {
          "indexed": false,
          "internalType": "uint256",
          "name": "timestamp",
          "type": "uint256"
        }
      ],
      "name": "Commit",
      "type": "event"
    },
    {
      "inputs": [],
      "name": "FIELD_SIZE",
      "outputs": [
        {
          "internalType": "uint256",
          "name": "",
          "type": "uint256"
        }
      ],
      "stateMutability": "view",
      "type": "function"
    },
    {
      "inputs": [],
      "name": "ROOT_HISTORY_SIZE",
      "outputs": [
        {
          "internalType": "uint32",
          "name": "",
          "type": "uint32"
        }
      ],
      "stateMutability": "view",
      "type": "function"
    },
    {
      "inputs": [],
      "name": "ZERO_VALUE",
      "outputs": [
        {
          "internalType": "uint256",
          "name": "",
          "type": "uint256"
        }
      ],
      "stateMutability": "view",
      "type": "function"
    },
    {
      "inputs": [
        {
          "internalType": "bytes32",
          "name": "",
          "type": "bytes32"
        }
      ],
      "name": "commitments",
      "outputs": [
        {
          "internalType": "bool",
          "name": "",
          "type": "bool"
        }
      ],
      "stateMutability": "view",
      "type": "function"
    },
    {
      "inputs": [],
      "name": "currentRootIndex",
      "outputs": [
        {
          "internalType": "uint32",
          "name": "",
          "type": "uint32"
        }
      ],
      "stateMutability": "view",
      "type": "function"
    },
    {
      "inputs": [
        {
          "internalType": "uint256",
          "name": "",
          "type": "uint256"
        }
      ],
      "name": "filledSubtrees",
      "outputs": [
        {
          "internalType": "bytes32",
          "name": "",
          "type": "bytes32"
        }
      ],
      "stateMutability": "view",
      "type": "function"
    },
    {
      "inputs": [],
      "name": "getLastRoot",
      "outputs": [
        {
          "internalType": "bytes32",
          "name": "",
          "type": "bytes32"
        }
      ],
      "stateMutability": "view",
      "type": "function"
    },
    {
      "inputs": [
        {
          "internalType": "uint256",
          "name": "_option",
          "type": "uint256"
        }
      ],
      "name": "getOptionCounter",
      "outputs": [
        {
          "internalType": "uint256",
          "name": "",
          "type": "uint256"
        }
      ],
      "stateMutability": "view",
      "type": "function"
    },
    {
      "inputs": [
        {
          "internalType": "uint256",
          "name": "_left",
          "type": "uint256"
        },
        {
          "internalType": "uint256",
          "name": "_right",
          "type": "uint256"
        }
      ],
      "name": "hashLeftRight",
      "outputs": [
        {
          "internalType": "bytes32",
          "name": "",
          "type": "bytes32"
        }
      ],
      "stateMutability": "view",
      "type": "function"
    },
    {
      "inputs": [],
      "name": "hasher",
      "outputs": [
        {
          "internalType": "contract IHasher",
          "name": "",
          "type": "address"
        }
      ],
      "stateMutability": "view",
      "type": "function"
    },
    {
      "inputs": [
        {
          "internalType": "bytes32",
          "name": "_root",
          "type": "bytes32"
        }
      ],
      "name": "isKnownRoot",
      "outputs": [
        {
          "internalType": "bool",
          "name": "",
          "type": "bool"
        }
      ],
      "stateMutability": "view",
      "type": "function"
    },
    {
      "inputs": [],
      "name": "levels",
      "outputs": [
        {
          "internalType": "uint32",
          "name": "",
          "type": "uint32"
        }
      ],
      "stateMutability": "view",
      "type": "function"
    },
    {
      "inputs": [],
      "name": "nextIndex",
      "outputs": [
        {
          "internalType": "uint32",
          "name": "",
          "type": "uint32"
        }
      ],
      "stateMutability": "view",
      "type": "function"
    },
    {
      "inputs": [
        {
          "internalType": "bytes32",
          "name": "",
          "type": "bytes32"
        }
      ],
      "name": "nullifiers",
      "outputs": [
        {
          "internalType": "bool",
          "name": "",
          "type": "bool"
        }
      ],
      "stateMutability": "view",
      "type": "function"
    },
    {
      "inputs": [],
      "name": "owner",
      "outputs": [
        {
          "internalType": "address",
          "name": "",
          "type": "address"
        }
      ],
      "stateMutability": "view",
      "type": "function"
    },
    {
      "inputs": [
        {
          "internalType": "uint256",
          "name": "_uniqueHash",
          "type": "uint256"
        },
        {
          "internalType": "uint256",
          "name": "_commitment",
          "type": "uint256"
        }
      ],
      "name": "registerCommitment",
      "outputs": [],
      "stateMutability": "nonpayable",
      "type": "function"
    },
    {
      "inputs": [
        {
          "internalType": "address",
          "name": "_validator",
          "type": "address"
        }
      ],
      "name": "registerValidator",
      "outputs": [],
      "stateMutability": "nonpayable",
      "type": "function"
    },
    {
      "inputs": [
        {
          "internalType": "uint256",
          "name": "",
          "type": "uint256"
        }
      ],
      "name": "roots",
      "outputs": [
        {
          "internalType": "bytes32",
          "name": "",
          "type": "bytes32"
        }
      ],
      "stateMutability": "view",
      "type": "function"
    },
    {
      "inputs": [
        {
          "internalType": "address",
          "name": "",
          "type": "address"
        }
      ],
      "name": "validators",
      "outputs": [
        {
          "internalType": "bool",
          "name": "",
          "type": "bool"
        }
      ],
      "stateMutability": "view",
      "type": "function"
    },
    {
      "inputs": [],
      "name": "verifier",
      "outputs": [
        {
          "internalType": "contract IVerifier",
          "name": "",
          "type": "address"
        }
      ],
      "stateMutability": "view",
      "type": "function"
    },
    {
      "inputs": [
        {
          "internalType": "uint256",
          "name": "_option",
          "type": "uint256"
        },
        {
          "internalType": "uint256",
          "name": "_nullifier",
          "type": "uint256"
        },
        {
          "internalType": "uint256",
          "name": "_root",
          "type": "uint256"
        },
        {
          "internalType": "uint256[2]",
          "name": "_proof_a",
          "type": "uint256[2]"
        },
        {
          "internalType": "uint256[2][2]",
          "name": "_proof_b",
          "type": "uint256[2][2]"
        },
        {
          "internalType": "uint256[2]",
          "name": "_proof_c",
          "type": "uint256[2]"
        }
      ],
      "name": "vote",
      "outputs": [],
      "stateMutability": "nonpayable",
      "type": "function"
    },
    {
      "inputs": [
        {
          "internalType": "uint256",
          "name": "i",
          "type": "uint256"
        }
      ],
      "name": "zeros",
      "outputs": [
        {
          "internalType": "bytes32",
          "name": "",
          "type": "bytes32"
        }
      ],
      "stateMutability": "pure",
      "type": "function"
    }
  ],
  "bytecode": "0x60c06040526000600360006101000a81548163ffffffff021916908363ffffffff1602179055506000600360046101000a81548163ffffffff021916908363ffffffff1602179055503480156200005557600080fd5b50604051620037353803806200373583398181016040528101906200007b919062000af3565b838383828260008263ffffffff1611620000cc576040517f08c379a0000000000000000000000000000000000000000000000000000000008152600401620000c39062000bec565b60405180910390fd5b60208263ffffffff161062000118576040517f08c379a00000000000000000000000000000000000000000000000000000000081526004016200010f9062000c5e565b60405180910390fd5b816000806101000a81548163ffffffff021916908363ffffffff1602179055508073ffffffffffffffffffffffffffffffffffffffff1660808173ffffffffffffffffffffffffffffffffffffffff168152505060005b8263ffffffff168163ffffffff161015620001ce576200019b8163ffffffff16620002d360201b60201c565b600160008363ffffffff168152602001908152602001600020819055508080620001c59062000caf565b9150506200016f565b50620001f4600183620001e2919062000ce0565b63ffffffff16620002d360201b60201c565b600260008081526020019081526020016000208190555050508073ffffffffffffffffffffffffffffffffffffffff1660a08173ffffffffffffffffffffffffffffffffffffffff168152505050505033600660006101000a81548173ffffffffffffffffffffffffffffffffffffffff021916908373ffffffffffffffffffffffffffffffffffffffff1602179055508060098190555060005b6009548111620002c8576000600a6000838152602001908152602001600020819055508080620002bf9062000d1f565b9150506200028f565b505050505062000dde565b600080820362000309577f2fe54c60d3acabf3343a35b6eba15db4821b340f76e741e2249685ed4899af6c60001b9050620009af565b600182036200033e577f256a6135777eee2fd26f54b8b7037a25439d5235caee224154186d2b8a52e31d60001b9050620009af565b6002820362000373577f1151949895e82ab19924de92c40a3d6f7bcb60d92b00504b8199613683f0c20060001b9050620009af565b60038203620003a8577f20121ee811489ff8d61f09fb89e313f14959a0f28bb428a20dba6b0b068b3bdb60001b9050620009af565b60048203620003dd577f0a89ca6ffa14cc462cfedb842c30ed221a50a3d6bf022a6a57dc82ab24c157c960001b9050620009af565b6005820362000412577f24ca05c2b5cd42e890d6be94c68d0689f4f21c9cec9c0f13fe41d566dfb5495960001b9050620009af565b6006820362000447577f1ccb97c932565a92c60156bdba2d08f3bf1377464e025cee765679e604a7315c60001b9050620009af565b600782036200047c577f19156fbd7d1a8bf5cba8909367de1b624534ebab4f0f79e003bccdd1b182bdb460001b9050620009af565b60088203620004b1577f261af8c1f0912e465744641409f622d466c3920ac6e5ff37e36604cb11dfff8060001b9050620009af565b60098203620004e5577e58459724ff6ca5a1652fcbc3e82b93895cf08e975b19beab3f54c217d1c00760001b9050620009af565b600a82036200051a577f1f04ef20dee48d39984d8eabe768a70eafa6310ad20849d4573c3c40c2ad1e3060001b9050620009af565b600b82036200054f577f1bea3dec5dab51567ce7e200a30f7ba6d4276aeaa53e2686f962a46c66d511e560001b9050620009af565b600c820362000584577f0ee0f941e2da4b9e31c3ca97a40d8fa9ce68d97c084177071b3cb46cd3372f0f60001b9050620009af565b600d8203620005b9577f1ca9503e8935884501bbaf20be14eb4c46b89772c97b96e3b2ebf3a36a948bbd60001b9050620009af565b600e8203620005ee577f133a80e30697cd55d8f7d4b0965b7be24057ba5dc3da898ee2187232446cb10860001b9050620009af565b600f820362000623577f13e6d8fc88839ed76e182c2a779af5b2c0da9dd18c90427a644f7e148a6253b660001b9050620009af565b6010820362000658577f1eb16b057a477f4bc8f572ea6bee39561098f78f15bfb3699dcbb7bd8db6185460001b9050620009af565b601182036200068d577f0da2cb16a1ceaabf1c16b838f7a9e3f2a3a3088d9e0a6debaa748114620696ea60001b9050620009af565b60128203620006c2577f24a3b3d822420b14b5d8cb6c28a574f01e98ea9e940551d2ebd75cee12649f9d60001b9050620009af565b60138203620006f7577f198622acbd783d1b0d9064105b1fc8e4d8889de95c4c519b3f635809fe6afc0560001b9050620009af565b601482036200072c577f29d7ed391256ccc3ea596c86e933b89ff339d25ea8ddced975ae2fe30b5296d460001b9050620009af565b6015820362000761577f19be59f2f0413ce78c0c3703a3a5451b1d7f39629fa33abd11548a76065b296760001b9050620009af565b6016820362000796577f1ff3f61797e538b70e619310d33f2a063e7eb59104e112e95738da1254dc345360001b9050620009af565b60178203620007cb577f10c16ae9959cf8358980d9dd9616e48228737310a10e2b6b731c1a548f036c4860001b9050620009af565b6018820362000800577f0ba433a63174a90ac20992e75e3095496812b652685b5e1a2eae0b1bf4e8fcd160001b9050620009af565b6019820362000835577f019ddb9df2bc98d987d0dfeca9d2b643deafab8f7036562e627c3667266a044c60001b9050620009af565b601a82036200086a577f2d3c88b23175c5a5565db928414c66d1912b11acf974b2e644caaac04739ce9960001b9050620009af565b601b82036200089f577f2eab55f6ae4e66e32c5189eed5c470840863445760f5ed7e7b69b2a62600f35460001b9050620009af565b601c8203620008d3577e2df37a2642621802383cf952bf4dd1f32e05433beeb1fd41031fb7eace979d60001b9050620009af565b601d820362000908577f104aeb41435db66c3e62feccc1d6f5d98d0a0ed75d1374db457cf462e3a1f42760001b9050620009af565b601e82036200093d577f1f3c6fd858e9a7d4b0d1f38e256a09d81d5a5e3c963987e2d4b814cfab7c6ebb60001b9050620009af565b601f820362000972577f2c7a07d20dff79d01fecedc1134284a8d08436606c93693b67e333f671bf69cc60001b9050620009af565b6040517f08c379a0000000000000000000000000000000000000000000000000000000008152600401620009a69062000dbc565b60405180910390fd5b919050565b600080fd5b600063ffffffff82169050919050565b620009d481620009b9565b8114620009e057600080fd5b50565b600081519050620009f481620009c9565b92915050565b600073ffffffffffffffffffffffffffffffffffffffff82169050919050565b600062000a2782620009fa565b9050919050565b600062000a3b8262000a1a565b9050919050565b62000a4d8162000a2e565b811462000a5957600080fd5b50565b60008151905062000a6d8162000a42565b92915050565b600062000a808262000a1a565b9050919050565b62000a928162000a73565b811462000a9e57600080fd5b50565b60008151905062000ab28162000a87565b92915050565b6000819050919050565b62000acd8162000ab8565b811462000ad957600080fd5b50565b60008151905062000aed8162000ac2565b92915050565b6000806000806080858703121562000b105762000b0f620009b4565b5b600062000b2087828801620009e3565b945050602062000b338782880162000a5c565b935050604062000b468782880162000aa1565b925050606062000b598782880162000adc565b91505092959194509250565b600082825260208201905092915050565b7f5f6c6576656c732073686f756c642062652067726561746572207468616e207a60008201527f65726f0000000000000000000000000000000000000000000000000000000000602082015250565b600062000bd460238362000b65565b915062000be18262000b76565b604082019050919050565b6000602082019050818103600083015262000c078162000bc5565b9050919050565b7f5f6c6576656c732073686f756c64206265206c657373207468616e2033320000600082015250565b600062000c46601e8362000b65565b915062000c538262000c0e565b602082019050919050565b6000602082019050818103600083015262000c798162000c37565b9050919050565b7f4e487b7100000000000000000000000000000000000000000000000000000000600052601160045260246000fd5b600062000cbc82620009b9565b915063ffffffff820362000cd55762000cd462000c80565b5b600182019050919050565b600062000ced82620009b9565b915062000cfa83620009b9565b9250828203905063ffffffff81111562000d195762000d1862000c80565b5b92915050565b600062000d2c8262000ab8565b91507fffffffffffffffffffffffffffffffffffffffffffffffffffffffffffffffff820362000d615762000d6062000c80565b5b600182019050919050565b7f496e646578206f7574206f6620626f756e647300000000000000000000000000600082015250565b600062000da460138362000b65565b915062000db18262000d6c565b602082019050919050565b6000602082019050818103600083015262000dd78162000d95565b9050919050565b60805160a05161291c62000e19600039600081816105c201526114170152600081816106eb015281816107c50152611224015261291c6000f3fe608060405234801561001057600080fd5b50600436106101425760003560e01c80639fca5169116100b8578063e82955881161007c578063e82955881461038d578063ec732959146103bd578063ed33639f146103db578063f178e47c146103f9578063fa52c7d814610429578063fc7e9c6f1461045957610142565b80639fca5169146102e9578063ba70f75714610305578063c2b40ae414610323578063cd87a3b414610353578063ce8f63771461037157610142565b80635bb939951161010a5780635bb93995146101ed5780636d9833e31461021d578063839df9451461024d5780638da5cb5b1461027d57806390eeb02b1461029b578063955e0377146102b957610142565b80631407beb8146101475780632997e86b146101635780632b7ac3f314610193578063414a37ba146101b15780634ecf518b146101cf575b600080fd5b610161600480360381019061015c919061178b565b610477565b005b61017d60048036038101906101789190611801565b6105a0565b60405161018a9190611849565b60405180910390f35b61019b6105c0565b6040516101a891906118e3565b60405180910390f35b6101b96105e4565b6040516101c6919061190d565b60405180910390f35b6101d7610608565b6040516101e49190611947565b60405180910390f35b6102076004803603810190610202919061178b565b61061c565b6040516102149190611971565b60405180910390f35b61023760048036038101906102329190611801565b610877565b6040516102449190611849565b60405180910390f35b61026760048036038101906102629190611801565b610914565b6040516102749190611849565b60405180910390f35b610285610934565b60405161029291906119ad565b60405180910390f35b6102a361095a565b6040516102b09190611947565b60405180910390f35b6102d360048036038101906102ce91906119c8565b610970565b6040516102e0919061190d565b60405180910390f35b61030360048036038101906102fe9190611a21565b61098d565b005b61030d610a78565b60405161031a9190611971565b60405180910390f35b61033d600480360381019061033891906119c8565b610aab565b60405161034a9190611971565b60405180910390f35b61035b610ac3565b6040516103689190611947565b60405180910390f35b61038b60048036038101906103869190611c46565b610ac8565b005b6103a760048036038101906103a291906119c8565b610b5f565b6040516103b49190611971565b60405180910390f35b6103c56111fe565b6040516103d2919061190d565b60405180910390f35b6103e3611222565b6040516103f09190611cf6565b60405180910390f35b610413600480360381019061040e91906119c8565b611246565b6040516104209190611971565b60405180910390f35b610443600480360381019061043e9190611a21565b61125e565b6040516104509190611849565b60405180910390f35b61046161127e565b60405161046e9190611947565b60405180910390f35b600760003373ffffffffffffffffffffffffffffffffffffffff1673ffffffffffffffffffffffffffffffffffffffff16815260200190815260200160002060009054906101000a900460ff16610503576040517f08c379a00000000000000000000000000000000000000000000000000000000081526004016104fa90611d6e565b60405180910390fd5b6008600083815260200190815260200160002060009054906101000a900460ff1615610564576040517f08c379a000000000000000000000000000000000000000000000000000000000815260040161055b90611e00565b60405180910390fd5b6105708160001b611294565b60016008600084815260200190815260200160002060006101000a81548160ff0219169083151502179055505050565b60046020528060005260406000206000915054906101000a900460ff1681565b7f000000000000000000000000000000000000000000000000000000000000000081565b7f30644e72e131a029b85045b68181585d2833e84879b9709143e1f593f000000181565b60008054906101000a900463ffffffff1681565b60007f30644e72e131a029b85045b68181585d2833e84879b9709143e1f593f00000018310610680576040517f08c379a000000000000000000000000000000000000000000000000000000000815260040161067790611e6c565b60405180910390fd5b7f30644e72e131a029b85045b68181585d2833e84879b9709143e1f593f000000182106106e2576040517f08c379a00000000000000000000000000000000000000000000000000000000081526004016106d990611efe565b60405180910390fd5b600083905060007f000000000000000000000000000000000000000000000000000000000000000073ffffffffffffffffffffffffffffffffffffffff16633f1a1187838360006040518463ffffffff1660e01b815260040161074793929190611f59565b6040805180830381865afa158015610763573d6000803e3d6000fd5b505050506040513d601f19601f820116820180604052508101906107879190611fa5565b80925081935050507f30644e72e131a029b85045b68181585d2833e84879b9709143e1f593f0000001806107be576107bd611fe5565b5b84830891507f000000000000000000000000000000000000000000000000000000000000000073ffffffffffffffffffffffffffffffffffffffff16633f1a1187838360006040518463ffffffff1660e01b815260040161082193929190611f59565b6040805180830381865afa15801561083d573d6000803e3d6000fd5b505050506040513d601f19601f820116820180604052508101906108619190611fa5565b80925081935050508160001b9250505092915050565b60008060001b820361088c576000905061090f565b6000600360009054906101000a900463ffffffff16905060008190505b600260008263ffffffff1681526020019081526020016000205484036108d45760019250505061090f565b60008163ffffffff16036108e757601e90505b80806108f290612043565b9150508163ffffffff168163ffffffff16036108a9576000925050505b919050565b60056020528060005260406000206000915054906101000a900460ff1681565b600660009054906101000a900473ffffffffffffffffffffffffffffffffffffffff1681565b600360009054906101000a900463ffffffff1681565b6000600a6000838152602001908152602001600020549050919050565b600660009054906101000a900473ffffffffffffffffffffffffffffffffffffffff1673ffffffffffffffffffffffffffffffffffffffff163373ffffffffffffffffffffffffffffffffffffffff1614610a1d576040517f08c379a0000000000000000000000000000000000000000000000000000000008152600401610a14906120b8565b60405180910390fd5b6001600760008373ffffffffffffffffffffffffffffffffffffffff1673ffffffffffffffffffffffffffffffffffffffff16815260200190815260200160002060006101000a81548160ff02191690831515021790555050565b600060026000600360009054906101000a900463ffffffff1663ffffffff16815260200190815260200160002054905090565b60026020528060005260406000206000915090505481565b601e81565b600954861115610b0d576040517f08c379a0000000000000000000000000000000000000000000000000000000008152600401610b0490612124565b60405180910390fd5b610b208560001b8560001b85858561136c565b6001600a600088815260200190815260200160002054610b409190612144565b600a600088815260200190815260200160002081905550505050505050565b6000808203610b93577f2fe54c60d3acabf3343a35b6eba15db4821b340f76e741e2249685ed4899af6c60001b90506111f9565b60018203610bc6577f256a6135777eee2fd26f54b8b7037a25439d5235caee224154186d2b8a52e31d60001b90506111f9565b60028203610bf9577f1151949895e82ab19924de92c40a3d6f7bcb60d92b00504b8199613683f0c20060001b90506111f9565b60038203610c2c577f20121ee811489ff8d61f09fb89e313f14959a0f28bb428a20dba6b0b068b3bdb60001b90506111f9565b60048203610c5f577f0a89ca6ffa14cc462cfedb842c30ed221a50a3d6bf022a6a57dc82ab24c157c960001b90506111f9565b60058203610c92577f24ca05c2b5cd42e890d6be94c68d0689f4f21c9cec9c0f13fe41d566dfb5495960001b90506111f9565b60068203610cc5577f1ccb97c932565a92c60156bdba2d08f3bf1377464e025cee765679e604a7315c60001b90506111f9565b60078203610cf8577f19156fbd7d1a8bf5cba8909367de1b624534ebab4f0f79e003bccdd1b182bdb460001b90506111f9565b60088203610d2b577f261af8c1f0912e465744641409f622d466c3920ac6e5ff37e36604cb11dfff8060001b90506111f9565b60098203610d5d577e58459724ff6ca5a1652fcbc3e82b93895cf08e975b19beab3f54c217d1c00760001b90506111f9565b600a8203610d90577f1f04ef20dee48d39984d8eabe768a70eafa6310ad20849d4573c3c40c2ad1e3060001b90506111f9565b600b8203610dc3577f1bea3dec5dab51567ce7e200a30f7ba6d4276aeaa53e2686f962a46c66d511e560001b90506111f9565b600c8203610df6577f0ee0f941e2da4b9e31c3ca97a40d8fa9ce68d97c084177071b3cb46cd3372f0f60001b90506111f9565b600d8203610e29577f1ca9503e8935884501bbaf20be14eb4c46b89772c97b96e3b2ebf3a36a948bbd60001b90506111f9565b600e8203610e5c577f133a80e30697cd55d8f7d4b0965b7be24057ba5dc3da898ee2187232446cb10860001b90506111f9565b600f8203610e8f577f13e6d8fc88839ed76e182c2a779af5b2c0da9dd18c90427a644f7e148a6253b660001b90506111f9565b60108203610ec2577f1eb16b057a477f4bc8f572ea6bee39561098f78f15bfb3699dcbb7bd8db6185460001b90506111f9565b60118203610ef5577f0da2cb16a1ceaabf1c16b838f7a9e3f2a3a3088d9e0a6debaa748114620696ea60001b90506111f9565b60128203610f28577f24a3b3d822420b14b5d8cb6c28a574f01e98ea9e940551d2ebd75cee12649f9d60001b90506111f9565b60138203610f5b577f198622acbd783d1b0d9064105b1fc8e4d8889de95c4c519b3f635809fe6afc0560001b90506111f9565b60148203610f8e577f29d7ed391256ccc3ea596c86e933b89ff339d25ea8ddced975ae2fe30b5296d460001b90506111f9565b60158203610fc1577f19be59f2f0413ce78c0c3703a3a5451b1d7f39629fa33abd11548a76065b296760001b90506111f9565b60168203610ff4577f1ff3f61797e538b70e619310d33f2a063e7eb59104e112e95738da1254dc345360001b90506111f9565b60178203611027577f10c16ae9959cf8358980d9dd9616e48228737310a10e2b6b731c1a548f036c4860001b90506111f9565b6018820361105a577f0ba433a63174a90ac20992e75e3095496812b652685b5e1a2eae0b1bf4e8fcd160001b90506111f9565b6019820361108d577f019ddb9df2bc98d987d0dfeca9d2b643deafab8f7036562e627c3667266a044c60001b90506111f9565b601a82036110c0577f2d3c88b23175c5a5565db928414c66d1912b11acf974b2e644caaac04739ce9960001b90506111f9565b601b82036110f3577f2eab55f6ae4e66e32c5189eed5c470840863445760f5ed7e7b69b2a62600f35460001b90506111f9565b601c8203611125577e2df37a2642621802383cf952bf4dd1f32e05433beeb1fd41031fb7eace979d60001b90506111f9565b601d8203611158577f104aeb41435db66c3e62feccc1d6f5d98d0a0ed75d1374db457cf462e3a1f42760001b90506111f9565b601e820361118b577f1f3c6fd858e9a7d4b0d1f38e256a09d81d5a5e3c963987e2d4b814cfab7c6ebb60001b90506111f9565b601f82036111be577f2c7a07d20dff79d01fecedc1134284a8d08436606c93693b67e333f671bf69cc60001b90506111f9565b6040517f08c379a00000000000000000000000000000000000000000000000000000000081526004016111f0906121c4565b60405180910390fd5b919050565b7f2fe54c60d3acabf3343a35b6eba15db4821b340f76e741e2249685ed4899af6c81565b7f000000000000000000000000000000000000000000000000000000000000000081565b60016020528060005260406000206000915090505481565b60076020528060005260406000206000915054906101000a900460ff1681565b600360049054906101000a900463ffffffff1681565b6005600082815260200190815260200160002060009054906101000a900460ff16156112f5576040517f08c379a00000000000000000000000000000000000000000000000000000000081526004016112ec90612256565b60405180910390fd5b60016005600083815260200190815260200160002060006101000a81548160ff021916908315150217905550600061132c82611541565b9050817f401999886e5f90a91b92a0bfb7e2d48f714651a4d1c929bb3a753525ba066b918242604051611360929190612276565b60405180910390a25050565b6004600086815260200190815260200160002060009054906101000a900460ff16156113cd576040517f08c379a00000000000000000000000000000000000000000000000000000000081526004016113c4906122eb565b60405180910390fd5b6113d684610877565b611415576040517f08c379a000000000000000000000000000000000000000000000000000000000815260040161140c90612357565b60405180910390fd5b7f000000000000000000000000000000000000000000000000000000000000000073ffffffffffffffffffffffffffffffffffffffff1663f5c9d69e84848460405180604001604052808b60001c81526020018a60001c8152506040518563ffffffff1660e01b815260040161148e9493929190612520565b602060405180830381865afa1580156114ab573d6000803e3d6000fd5b505050506040513d601f19601f820116820180604052508101906114cf9190612593565b61150e576040517f08c379a00000000000000000000000000000000000000000000000000000000081526004016115059061260c565b60405180910390fd5b60016004600087815260200190815260200160002060006101000a81548160ff0219169083151502179055505050505050565b600080600360049054906101000a900463ffffffff16905060008054906101000a900463ffffffff166002611576919061275f565b63ffffffff168163ffffffff16036115c3576040517f08c379a00000000000000000000000000000000000000000000000000000000081526004016115ba90612800565b60405180910390fd5b6000819050600084905060008060005b60008054906101000a900463ffffffff1663ffffffff168163ffffffff16101561169c5760006002866116069190612820565b63ffffffff1603611648578392506116238163ffffffff16610b5f565b915083600160008363ffffffff16815260200190815260200160002081905550611668565b600160008263ffffffff1681526020019081526020016000205492508391505b6116788360001c8360001c61061c565b93506002856116879190612851565b9450808061169490612882565b9150506115d3565b506000601e6001600360009054906101000a900463ffffffff166116c091906128ae565b6116ca9190612820565b905080600360006101000a81548163ffffffff021916908363ffffffff16021790555083600260008363ffffffff1681526020019081526020016000208190555060018661171891906128ae565b600360046101000a81548163ffffffff021916908363ffffffff160217905550859650505050505050919050565b6000604051905090565b600080fd5b6000819050919050565b61176881611755565b811461177357600080fd5b50565b6000813590506117858161175f565b92915050565b600080604083850312156117a2576117a1611750565b5b60006117b085828601611776565b92505060206117c185828601611776565b9150509250929050565b6000819050919050565b6117de816117cb565b81146117e957600080fd5b50565b6000813590506117fb816117d5565b92915050565b60006020828403121561181757611816611750565b5b6000611825848285016117ec565b91505092915050565b60008115159050919050565b6118438161182e565b82525050565b600060208201905061185e600083018461183a565b92915050565b600073ffffffffffffffffffffffffffffffffffffffff82169050919050565b6000819050919050565b60006118a96118a461189f84611864565b611884565b611864565b9050919050565b60006118bb8261188e565b9050919050565b60006118cd826118b0565b9050919050565b6118dd816118c2565b82525050565b60006020820190506118f860008301846118d4565b92915050565b61190781611755565b82525050565b600060208201905061192260008301846118fe565b92915050565b600063ffffffff82169050919050565b61194181611928565b82525050565b600060208201905061195c6000830184611938565b92915050565b61196b816117cb565b82525050565b60006020820190506119866000830184611962565b92915050565b600061199782611864565b9050919050565b6119a78161198c565b82525050565b60006020820190506119c2600083018461199e565b92915050565b6000602082840312156119de576119dd611750565b5b60006119ec84828501611776565b91505092915050565b6119fe8161198c565b8114611a0957600080fd5b50565b600081359050611a1b816119f5565b92915050565b600060208284031215611a3757611a36611750565b5b6000611a4584828501611a0c565b91505092915050565b600080fd5b6000601f19601f8301169050919050565b7f4e487b7100000000000000000000000000000000000000000000000000000000600052604160045260246000fd5b611a9c82611a53565b810181811067ffffffffffffffff82111715611abb57611aba611a64565b5b80604052505050565b6000611ace611746565b9050611ada8282611a93565b919050565b600067ffffffffffffffff821115611afa57611af9611a64565b5b602082029050919050565b600080fd5b6000611b1d611b1884611adf565b611ac4565b90508060208402830185811115611b3757611b36611b05565b5b835b81811015611b605780611b4c8882611776565b845260208401935050602081019050611b39565b5050509392505050565b600082601f830112611b7f57611b7e611a4e565b5b6002611b8c848285611b0a565b91505092915050565b600067ffffffffffffffff821115611bb057611baf611a64565b5b602082029050919050565b6000611bce611bc984611b95565b611ac4565b90508060408402830185811115611be857611be7611b05565b5b835b81811015611c115780611bfd8882611b6a565b845260208401935050604081019050611bea565b5050509392505050565b600082601f830112611c3057611c2f611a4e565b5b6002611c3d848285611bbb565b91505092915050565b6000806000806000806101608789031215611c6457611c63611750565b5b6000611c7289828a01611776565b9650506020611c8389828a01611776565b9550506040611c9489828a01611776565b9450506060611ca589828a01611b6a565b93505060a0611cb689828a01611c1b565b925050610120611cc889828a01611b6a565b9150509295509295509295565b6000611ce0826118b0565b9050919050565b611cf081611cd5565b82525050565b6000602082019050611d0b6000830184611ce7565b92915050565b600082825260208201905092915050565b7f4f6e6c792076616c696461746f722063616e20636f6d6d697421000000000000600082015250565b6000611d58601a83611d11565b9150611d6382611d22565b602082019050919050565b60006020820190508181036000830152611d8781611d4b565b9050919050565b7f5468697320756e69717565206861736820697320616c7265616479207573656460008201527f2100000000000000000000000000000000000000000000000000000000000000602082015250565b6000611dea602183611d11565b9150611df582611d8e565b604082019050919050565b60006020820190508181036000830152611e1981611ddd565b9050919050565b7f5f6c6566742073686f756c6420626520696e7369646520746865206669656c64600082015250565b6000611e56602083611d11565b9150611e6182611e20565b602082019050919050565b60006020820190508181036000830152611e8581611e49565b9050919050565b7f5f72696768742073686f756c6420626520696e7369646520746865206669656c60008201527f6400000000000000000000000000000000000000000000000000000000000000602082015250565b6000611ee8602183611d11565b9150611ef382611e8c565b604082019050919050565b60006020820190508181036000830152611f1781611edb565b9050919050565b6000819050919050565b6000611f43611f3e611f3984611f1e565b611884565b611755565b9050919050565b611f5381611f28565b82525050565b6000606082019050611f6e60008301866118fe565b611f7b60208301856118fe565b611f886040830184611f4a565b949350505050565b600081519050611f9f8161175f565b92915050565b60008060408385031215611fbc57611fbb611750565b5b6000611fca85828601611f90565b9250506020611fdb85828601611f90565b9150509250929050565b7f4e487b7100000000000000000000000000000000000000000000000000000000600052601260045260246000fd5b7f4e487b7100000000000000000000000000000000000000000000000000000000600052601160045260246000fd5b600061204e82611928565b91506000820361206157612060612014565b5b600182039050919050565b7f4f6e6c79206f776e65722063616e206164642076616c696461746f7221000000600082015250565b60006120a2601d83611d11565b91506120ad8261206c565b602082019050919050565b600060208201905081810360008301526120d181612095565b9050919050565b7f496e76616c6964206f7074696f6e210000000000000000000000000000000000600082015250565b600061210e600f83611d11565b9150612119826120d8565b602082019050919050565b6000602082019050818103600083015261213d81612101565b9050919050565b600061214f82611755565b915061215a83611755565b925082820190508082111561217257612171612014565b5b92915050565b7f496e646578206f7574206f6620626f756e647300000000000000000000000000600082015250565b60006121ae601383611d11565b91506121b982612178565b602082019050919050565b600060208201905081810360008301526121dd816121a1565b9050919050565b7f54686520636f6d6d69746d656e7420686173206265656e207375626d6974746560008201527f6400000000000000000000000000000000000000000000000000000000000000602082015250565b6000612240602183611d11565b915061224b826121e4565b604082019050919050565b6000602082019050818103600083015261226f81612233565b9050919050565b600060408201905061228b6000830185611938565b61229860208301846118fe565b9392505050565b7f546865206e756c6c696669657220686173206265656e207375626d6974746564600082015250565b60006122d5602083611d11565b91506122e08261229f565b602082019050919050565b60006020820190508181036000830152612304816122c8565b9050919050565b7f43616e6e6f742066696e6420796f7572206d65726b6c6520726f6f7400000000600082015250565b6000612341601c83611d11565b915061234c8261230b565b602082019050919050565b6000602082019050818103600083015261237081612334565b9050919050565b600060029050919050565b600081905092915050565b6000819050919050565b6123a081611755565b82525050565b60006123b28383612397565b60208301905092915050565b6000602082019050919050565b6123d481612377565b6123de8184612382565b92506123e98261238d565b8060005b8381101561241a57815161240187826123a6565b965061240c836123be565b9250506001810190506123ed565b505050505050565b600060029050919050565b600081905092915050565b6000819050919050565b600081905092915050565b61245681612377565b6124608184612442565b925061246b8261238d565b8060005b8381101561249c57815161248387826123a6565b965061248e836123be565b92505060018101905061246f565b505050505050565b60006124b0838361244d565b60408301905092915050565b6000602082019050919050565b6124d281612422565b6124dc818461242d565b92506124e782612438565b8060005b838110156125185781516124ff87826124a4565b965061250a836124bc565b9250506001810190506124eb565b505050505050565b60006101408201905061253660008301876123cb565b61254360408301866124c9565b61255060c08301856123cb565b61255e6101008301846123cb565b95945050505050565b6125708161182e565b811461257b57600080fd5b50565b60008151905061258d81612567565b92915050565b6000602082840312156125a9576125a8611750565b5b60006125b78482850161257e565b91505092915050565b7f496e76616c69642070726f6f6600000000000000000000000000000000000000600082015250565b60006125f6600d83611d11565b9150612601826125c0565b602082019050919050565b60006020820190508181036000830152612625816125e9565b9050919050565b60008160011c9050919050565b6000808291508390505b60018511156126835780860481111561265f5761265e612014565b5b600185161561266e5780820291505b808102905061267c8561262c565b9450612643565b94509492505050565b60008261269c5760019050612758565b816126aa5760009050612758565b81600181146126c057600281146126ca576126f9565b6001915050612758565b60ff8411156126dc576126db612014565b5b8360020a9150848211156126f3576126f2612014565b5b50612758565b5060208310610133831016604e8410600b841016171561272e5782820a90508381111561272957612728612014565b5b612758565b61273b8484846001612639565b9250905081840481111561275257612751612014565b5b81810290505b9392505050565b600061276a82611928565b915061277583611928565b925061278663ffffffff848461268c565b905092915050565b7f4d65726b6c6520747265652069732066756c6c2e204e6f206d6f7265206c656160008201527f7665732063616e20626520616464656400000000000000000000000000000000602082015250565b60006127ea603083611d11565b91506127f58261278e565b604082019050919050565b60006020820190508181036000830152612819816127dd565b9050919050565b600061282b82611928565b915061283683611928565b92508261284657612845611fe5565b5b828206905092915050565b600061285c82611928565b915061286783611928565b92508261287757612876611fe5565b5b828204905092915050565b600061288d82611928565b915063ffffffff82036128a3576128a2612014565b5b600182019050919050565b60006128b982611928565b91506128c483611928565b9250828201905063ffffffff8111156128e0576128df612014565b5b9291505056fea2646970667358221220935c444ef88a177d991ff2717c8c54a4d3e028e4e45374b928880ee0f30e7c0964736f6c63430008120033",
  "linkReferences": {},
  "deployedLinkReferences": {}
}